{
  "contractName": "OCFC",
  "abi": [
    {
      "inputs": [],
      "stateMutability": "nonpayable",
      "type": "constructor"
    },
    {
      "anonymous": false,
      "inputs": [
        {
          "indexed": true,
          "internalType": "address",
          "name": "owner",
          "type": "address"
        },
        {
          "indexed": true,
          "internalType": "address",
          "name": "approved",
          "type": "address"
        },
        {
          "indexed": true,
          "internalType": "uint256",
          "name": "tokenId",
          "type": "uint256"
        }
      ],
      "name": "Approval",
      "type": "event"
    },
    {
      "anonymous": false,
      "inputs": [
        {
          "indexed": true,
          "internalType": "address",
          "name": "owner",
          "type": "address"
        },
        {
          "indexed": true,
          "internalType": "address",
          "name": "operator",
          "type": "address"
        },
        {
          "indexed": false,
          "internalType": "bool",
          "name": "approved",
          "type": "bool"
        }
      ],
      "name": "ApprovalForAll",
      "type": "event"
    },
    {
      "anonymous": false,
      "inputs": [
        {
          "indexed": true,
          "internalType": "address",
          "name": "previousOwner",
          "type": "address"
        },
        {
          "indexed": true,
          "internalType": "address",
          "name": "newOwner",
          "type": "address"
        }
      ],
      "name": "OwnershipTransferred",
      "type": "event"
    },
    {
      "anonymous": false,
      "inputs": [
        {
          "indexed": true,
          "internalType": "address",
          "name": "from",
          "type": "address"
        },
        {
          "indexed": true,
          "internalType": "address",
          "name": "to",
          "type": "address"
        },
        {
          "indexed": true,
          "internalType": "uint256",
          "name": "tokenId",
          "type": "uint256"
        }
      ],
      "name": "Transfer",
      "type": "event"
    },
    {
      "inputs": [
        {
          "internalType": "address",
          "name": "",
          "type": "address"
        }
      ],
      "name": "addressToTokenId",
      "outputs": [
        {
          "internalType": "uint256",
          "name": "",
          "type": "uint256"
        }
      ],
      "stateMutability": "view",
      "type": "function",
      "constant": true
    },
    {
      "inputs": [
        {
          "internalType": "address",
          "name": "",
          "type": "address"
        }
      ],
      "name": "alreadyMinted",
      "outputs": [
        {
          "internalType": "bool",
          "name": "",
          "type": "bool"
        }
      ],
      "stateMutability": "view",
      "type": "function",
      "constant": true
    },
    {
      "inputs": [
        {
          "internalType": "address",
          "name": "to",
          "type": "address"
        },
        {
          "internalType": "uint256",
          "name": "tokenId",
          "type": "uint256"
        }
      ],
      "name": "approve",
      "outputs": [],
      "stateMutability": "nonpayable",
      "type": "function"
    },
    {
      "inputs": [
        {
          "internalType": "address",
          "name": "owner",
          "type": "address"
        }
      ],
      "name": "balanceOf",
      "outputs": [
        {
          "internalType": "uint256",
          "name": "",
          "type": "uint256"
        }
      ],
      "stateMutability": "view",
      "type": "function",
      "constant": true
    },
    {
      "inputs": [
        {
          "internalType": "uint256",
          "name": "",
          "type": "uint256"
        }
      ],
      "name": "fight",
      "outputs": [
        {
          "internalType": "uint256",
          "name": "id",
          "type": "uint256"
        },
        {
          "internalType": "bool",
          "name": "isActive",
          "type": "bool"
        },
        {
          "internalType": "address",
          "name": "fighter1",
          "type": "address"
        },
        {
          "internalType": "address",
          "name": "fighter2",
          "type": "address"
        }
      ],
      "stateMutability": "view",
      "type": "function",
      "constant": true
    },
    {
      "inputs": [
        {
          "internalType": "uint256",
          "name": "tokenId",
          "type": "uint256"
        }
      ],
      "name": "getApproved",
      "outputs": [
        {
          "internalType": "address",
          "name": "",
          "type": "address"
        }
      ],
      "stateMutability": "view",
      "type": "function",
      "constant": true
    },
    {
      "inputs": [
        {
          "internalType": "address",
          "name": "owner",
          "type": "address"
        },
        {
          "internalType": "address",
          "name": "operator",
          "type": "address"
        }
      ],
      "name": "isApprovedForAll",
      "outputs": [
        {
          "internalType": "bool",
          "name": "",
          "type": "bool"
        }
      ],
      "stateMutability": "view",
      "type": "function",
      "constant": true
    },
    {
      "inputs": [
        {
          "internalType": "uint256",
          "name": "",
          "type": "uint256"
        }
      ],
      "name": "member",
      "outputs": [
        {
          "internalType": "uint256",
          "name": "id",
          "type": "uint256"
        },
        {
          "internalType": "uint256",
          "name": "punchPower",
          "type": "uint256"
        },
        {
          "internalType": "uint256",
          "name": "kickPower",
          "type": "uint256"
        },
        {
          "internalType": "uint256",
          "name": "headOffPower",
          "type": "uint256"
        },
        {
          "internalType": "uint256",
          "name": "score",
          "type": "uint256"
        },
        {
          "internalType": "uint256",
          "name": "bday",
          "type": "uint256"
        }
      ],
      "stateMutability": "view",
      "type": "function",
      "constant": true
    },
    {
      "inputs": [],
      "name": "name",
      "outputs": [
        {
          "internalType": "string",
          "name": "",
          "type": "string"
        }
      ],
      "stateMutability": "view",
      "type": "function",
      "constant": true
    },
    {
      "inputs": [],
      "name": "owner",
      "outputs": [
        {
          "internalType": "address",
          "name": "",
          "type": "address"
        }
      ],
      "stateMutability": "view",
      "type": "function",
      "constant": true
    },
    {
      "inputs": [
        {
          "internalType": "uint256",
          "name": "tokenId",
          "type": "uint256"
        }
      ],
      "name": "ownerOf",
      "outputs": [
        {
          "internalType": "address",
          "name": "",
          "type": "address"
        }
      ],
      "stateMutability": "view",
      "type": "function",
      "constant": true
    },
    {
      "inputs": [],
      "name": "renounceOwnership",
      "outputs": [],
      "stateMutability": "nonpayable",
      "type": "function"
    },
    {
      "inputs": [
        {
          "internalType": "address",
          "name": "from",
          "type": "address"
        },
        {
          "internalType": "address",
          "name": "to",
          "type": "address"
        },
        {
          "internalType": "uint256",
          "name": "tokenId",
          "type": "uint256"
        }
      ],
      "name": "safeTransferFrom",
      "outputs": [],
      "stateMutability": "nonpayable",
      "type": "function"
    },
    {
      "inputs": [
        {
          "internalType": "address",
          "name": "from",
          "type": "address"
        },
        {
          "internalType": "address",
          "name": "to",
          "type": "address"
        },
        {
          "internalType": "uint256",
          "name": "tokenId",
          "type": "uint256"
        },
        {
          "internalType": "bytes",
          "name": "data",
          "type": "bytes"
        }
      ],
      "name": "safeTransferFrom",
      "outputs": [],
      "stateMutability": "nonpayable",
      "type": "function"
    },
    {
      "inputs": [
        {
          "internalType": "address",
          "name": "operator",
          "type": "address"
        },
        {
          "internalType": "bool",
          "name": "approved",
          "type": "bool"
        }
      ],
      "name": "setApprovalForAll",
      "outputs": [],
      "stateMutability": "nonpayable",
      "type": "function"
    },
    {
      "inputs": [
        {
          "internalType": "bytes4",
          "name": "interfaceId",
          "type": "bytes4"
        }
      ],
      "name": "supportsInterface",
      "outputs": [
        {
          "internalType": "bool",
          "name": "",
          "type": "bool"
        }
      ],
      "stateMutability": "view",
      "type": "function",
      "constant": true
    },
    {
      "inputs": [],
      "name": "symbol",
      "outputs": [
        {
          "internalType": "string",
          "name": "",
          "type": "string"
        }
      ],
      "stateMutability": "view",
      "type": "function",
      "constant": true
    },
    {
      "inputs": [
        {
          "internalType": "uint256",
          "name": "tokenId",
          "type": "uint256"
        }
      ],
      "name": "tokenURI",
      "outputs": [
        {
          "internalType": "string",
          "name": "",
          "type": "string"
        }
      ],
      "stateMutability": "view",
      "type": "function",
      "constant": true
    },
    {
      "inputs": [
        {
          "internalType": "address",
          "name": "",
          "type": "address"
        }
      ],
      "name": "trainCounter",
      "outputs": [
        {
          "internalType": "uint256",
          "name": "",
          "type": "uint256"
        }
      ],
      "stateMutability": "view",
      "type": "function",
      "constant": true
    },
    {
      "inputs": [
        {
          "internalType": "address",
          "name": "from",
          "type": "address"
        },
        {
          "internalType": "address",
          "name": "to",
          "type": "address"
        },
        {
          "internalType": "uint256",
          "name": "tokenId",
          "type": "uint256"
        }
      ],
      "name": "transferFrom",
      "outputs": [],
      "stateMutability": "nonpayable",
      "type": "function"
    },
    {
      "inputs": [
        {
          "internalType": "address",
          "name": "newOwner",
          "type": "address"
        }
      ],
      "name": "transferOwnership",
      "outputs": [],
      "stateMutability": "nonpayable",
      "type": "function"
    },
    {
      "inputs": [],
      "name": "mintMember",
      "outputs": [
        {
          "internalType": "uint256",
          "name": "",
          "type": "uint256"
        }
      ],
      "stateMutability": "nonpayable",
      "type": "function"
    },
    {
      "inputs": [
        {
          "internalType": "address",
          "name": "_fighter1",
          "type": "address"
        },
        {
          "internalType": "uint256",
          "name": "move1",
          "type": "uint256"
        },
        {
          "internalType": "uint256",
          "name": "move2",
          "type": "uint256"
        },
        {
          "internalType": "uint256",
          "name": "move3",
          "type": "uint256"
        }
      ],
      "name": "createFight",
      "outputs": [],
      "stateMutability": "nonpayable",
      "type": "function"
    },
    {
      "inputs": [
        {
          "internalType": "uint256",
          "name": "fightId",
          "type": "uint256"
        },
        {
          "internalType": "uint256",
          "name": "move1",
          "type": "uint256"
        },
        {
          "internalType": "uint256",
          "name": "move2",
          "type": "uint256"
        },
        {
          "internalType": "uint256",
          "name": "move3",
          "type": "uint256"
        }
      ],
      "name": "joinAndFight",
      "outputs": [],
      "stateMutability": "nonpayable",
      "type": "function"
    },
    {
      "inputs": [
        {
          "internalType": "address",
          "name": "_fighterOwner",
          "type": "address"
        }
      ],
      "name": "trainFighter",
      "outputs": [],
      "stateMutability": "payable",
      "type": "function",
      "payable": true
    },
    {
      "inputs": [],
      "name": "withdraw",
      "outputs": [
        {
          "internalType": "bool",
          "name": "",
          "type": "bool"
        }
      ],
      "stateMutability": "nonpayable",
      "type": "function"
    }
  ],
  "bytecode": "0x60806040523480156200001157600080fd5b506040518060400160405280601281526020017f4f6e436861696e20466967687420436c756200000000000000000000000000008152506040518060400160405280600681526020017f4d656d6265720000000000000000000000000000000000000000000000000000815250816000908051906020019062000096929190620001a6565b508060019080519060200190620000af929190620001a6565b505050620000d2620000c6620000d860201b60201c565b620000e060201b60201c565b620002ba565b600033905090565b6000600660009054906101000a900473ffffffffffffffffffffffffffffffffffffffff16905081600660006101000a81548173ffffffffffffffffffffffffffffffffffffffff021916908373ffffffffffffffffffffffffffffffffffffffff1602179055508173ffffffffffffffffffffffffffffffffffffffff168173ffffffffffffffffffffffffffffffffffffffff167f8be0079c531659141344cd1fd0a4f28419497f9722a3daafe3b4186f6b6457e060405160405180910390a35050565b828054620001b49062000285565b90600052602060002090601f016020900481019282620001d8576000855562000224565b82601f10620001f357805160ff191683800117855562000224565b8280016001018555821562000224579182015b828111156200022357825182559160200191906001019062000206565b5b50905062000233919062000237565b5090565b5b808211156200025257600081600090555060010162000238565b5090565b7f4e487b7100000000000000000000000000000000000000000000000000000000600052602260045260246000fd5b600060028204905060018216806200029e57607f821691505b602082108103620002b457620002b362000256565b5b50919050565b61531480620002ca6000396000f3fe6080604052600436106101815760003560e01c80638da5cb5b116100d1578063b88d4fde1161008a578063df6a37aa11610064578063df6a37aa146105ae578063e985e9c5146105ee578063f2fde38b1461062b578063fa28d82d1461065457610181565b8063b88d4fde1461051f578063c87b56dd14610548578063ca4809da1461058557610181565b80638da5cb5b14610405578063956d113b1461043057806395d89b41146104725780639ac138a21461049d578063a22cb465146104da578063b095af841461050357610181565b80633ccfd60b1161013e5780636352211e116101185780636352211e146103375780636511bf2e1461037457806370a08231146103b1578063715018a6146103ee57610181565b80633ccfd60b146102ba578063415658f8146102e557806342842e0e1461030e57610181565b806301ffc9a71461018657806306fdde03146101c3578063081812fc146101ee578063095ea7b31461022b5780630a398b881461025457806323b872dd14610291575b600080fd5b34801561019257600080fd5b506101ad60048036038101906101a89190614065565b61067f565b6040516101ba91906140ad565b60405180910390f35b3480156101cf57600080fd5b506101d8610761565b6040516101e59190614161565b60405180910390f35b3480156101fa57600080fd5b50610215600480360381019061021091906141b9565b6107f3565b6040516102229190614227565b60405180910390f35b34801561023757600080fd5b50610252600480360381019061024d919061426e565b610839565b005b34801561026057600080fd5b5061027b600480360381019061027691906142ae565b610950565b60405161028891906140ad565b60405180910390f35b34801561029d57600080fd5b506102b860048036038101906102b391906142db565b610970565b005b3480156102c657600080fd5b506102cf6109d0565b6040516102dc91906140ad565b60405180910390f35b3480156102f157600080fd5b5061030c6004803603810190610307919061432e565b610a28565b005b34801561031a57600080fd5b50610335600480360381019061033091906142db565b610c8e565b005b34801561034357600080fd5b5061035e600480360381019061035991906141b9565b610cae565b60405161036b9190614227565b60405180910390f35b34801561038057600080fd5b5061039b600480360381019061039691906142ae565b610d5f565b6040516103a891906143a4565b60405180910390f35b3480156103bd57600080fd5b506103d860048036038101906103d391906142ae565b610d77565b6040516103e591906143a4565b60405180910390f35b3480156103fa57600080fd5b50610403610e2e565b005b34801561041157600080fd5b5061041a610e42565b6040516104279190614227565b60405180910390f35b34801561043c57600080fd5b50610457600480360381019061045291906141b9565b610e6c565b604051610469969594939291906143bf565b60405180910390f35b34801561047e57600080fd5b50610487610eb8565b6040516104949190614161565b60405180910390f35b3480156104a957600080fd5b506104c460048036038101906104bf91906142ae565b610f4a565b6040516104d191906143a4565b60405180910390f35b3480156104e657600080fd5b5061050160048036038101906104fc919061444c565b610f62565b005b61051d600480360381019061051891906142ae565b610f78565b005b34801561052b57600080fd5b50610546600480360381019061054191906145c1565b611324565b005b34801561055457600080fd5b5061056f600480360381019061056a91906141b9565b611386565b60405161057c9190614161565b60405180910390f35b34801561059157600080fd5b506105ac60048036038101906105a79190614644565b6113ee565b005b3480156105ba57600080fd5b506105d560048036038101906105d091906141b9565b612e7b565b6040516105e594939291906146ab565b60405180910390f35b3480156105fa57600080fd5b50610615600480360381019061061091906146f0565b612f08565b60405161062291906140ad565b60405180910390f35b34801561063757600080fd5b50610652600480360381019061064d91906142ae565b612f9c565b005b34801561066057600080fd5b5061066961301f565b60405161067691906143a4565b60405180910390f35b60007f80ac58cd000000000000000000000000000000000000000000000000000000007bffffffffffffffffffffffffffffffffffffffffffffffffffffffff1916827bffffffffffffffffffffffffffffffffffffffffffffffffffffffff1916148061074a57507f5b5e139f000000000000000000000000000000000000000000000000000000007bffffffffffffffffffffffffffffffffffffffffffffffffffffffff1916827bffffffffffffffffffffffffffffffffffffffffffffffffffffffff1916145b8061075a575061075982613212565b5b9050919050565b6060600080546107709061475f565b80601f016020809104026020016040519081016040528092919081815260200182805461079c9061475f565b80156107e95780601f106107be576101008083540402835291602001916107e9565b820191906000526020600020905b8154815290600101906020018083116107cc57829003601f168201915b5050505050905090565b60006107fe8261327c565b6004600083815260200190815260200160002060009054906101000a900473ffffffffffffffffffffffffffffffffffffffff169050919050565b600061084482610cae565b90508073ffffffffffffffffffffffffffffffffffffffff168373ffffffffffffffffffffffffffffffffffffffff16036108b4576040517f08c379a00000000000000000000000000000000000000000000000000000000081526004016108ab90614802565b60405180910390fd5b8073ffffffffffffffffffffffffffffffffffffffff166108d36132c7565b73ffffffffffffffffffffffffffffffffffffffff1614806109025750610901816108fc6132c7565b612f08565b5b610941576040517f08c379a000000000000000000000000000000000000000000000000000000000815260040161093890614894565b60405180910390fd5b61094b83836132cf565b505050565b60086020528060005260406000206000915054906101000a900460ff1681565b61098161097b6132c7565b82613388565b6109c0576040517f08c379a00000000000000000000000000000000000000000000000000000000081526004016109b790614926565b60405180910390fd5b6109cb83838361341d565b505050565b60006109da613683565b3373ffffffffffffffffffffffffffffffffffffffff166108fc479081150290604051600060405180830381858888f19350505050158015610a20573d6000803e3d6000fd5b506001905090565b3373ffffffffffffffffffffffffffffffffffffffff16610a87600960008773ffffffffffffffffffffffffffffffffffffffff1673ffffffffffffffffffffffffffffffffffffffff16815260200190815260200160002054610cae565b73ffffffffffffffffffffffffffffffffffffffff1614610add576040517f08c379a0000000000000000000000000000000000000000000000000000000008152600401610ad490614992565b60405180910390fd5b600c6040518060c00160405280600c805490508152602001600115158152602001604051806060016040528087815260200186815260200185815250815260200160405180606001604052808781526020018681526020018581525081526020018673ffffffffffffffffffffffffffffffffffffffff168152602001600073ffffffffffffffffffffffffffffffffffffffff1681525090806001815401808255809150506001900390600052602060002090600a02016000909190919091506000820151816000015560208201518160010160006101000a81548160ff021916908315150217905550604082015181600201906003610bdf929190613f9c565b50606082015181600501906003610bf7929190613f9c565b5060808201518160080160006101000a81548173ffffffffffffffffffffffffffffffffffffffff021916908373ffffffffffffffffffffffffffffffffffffffff16021790555060a08201518160090160006101000a81548173ffffffffffffffffffffffffffffffffffffffff021916908373ffffffffffffffffffffffffffffffffffffffff160217905550505050505050565b610ca983838360405180602001604052806000815250611324565b505050565b6000806002600084815260200190815260200160002060009054906101000a900473ffffffffffffffffffffffffffffffffffffffff169050600073ffffffffffffffffffffffffffffffffffffffff168173ffffffffffffffffffffffffffffffffffffffff1603610d56576040517f08c379a0000000000000000000000000000000000000000000000000000000008152600401610d4d906149fe565b60405180910390fd5b80915050919050565b60096020528060005260406000206000915090505481565b60008073ffffffffffffffffffffffffffffffffffffffff168273ffffffffffffffffffffffffffffffffffffffff1603610de7576040517f08c379a0000000000000000000000000000000000000000000000000000000008152600401610dde90614a90565b60405180910390fd5b600360008373ffffffffffffffffffffffffffffffffffffffff1673ffffffffffffffffffffffffffffffffffffffff168152602001908152602001600020549050919050565b610e36613683565b610e406000613701565b565b6000600660009054906101000a900473ffffffffffffffffffffffffffffffffffffffff16905090565b600b8181548110610e7c57600080fd5b90600052602060002090600602016000915090508060000154908060010154908060020154908060030154908060040154908060050154905086565b606060018054610ec79061475f565b80601f0160208091040260200160405190810160405280929190818152602001828054610ef39061475f565b8015610f405780601f10610f1557610100808354040283529160200191610f40565b820191906000526020600020905b815481529060010190602001808311610f2357829003601f168201915b5050505050905090565b600a6020528060005260406000206000915090505481565b610f74610f6d6132c7565b83836137c7565b5050565b670de0b6b3a7640000341015610fc3576040517f08c379a0000000000000000000000000000000000000000000000000000000008152600401610fba90614afc565b60405180910390fd5b3373ffffffffffffffffffffffffffffffffffffffff16611022600960008473ffffffffffffffffffffffffffffffffffffffff1673ffffffffffffffffffffffffffffffffffffffff16815260200190815260200160002054610cae565b73ffffffffffffffffffffffffffffffffffffffff1614611078576040517f08c379a000000000000000000000000000000000000000000000000000000000815260040161106f90614992565b60405180910390fd5b6001600a60003373ffffffffffffffffffffffffffffffffffffffff1673ffffffffffffffffffffffffffffffffffffffff16815260200190815260200160002060008282546110c89190614b4b565b92505081905550600a60003373ffffffffffffffffffffffffffffffffffffffff1673ffffffffffffffffffffffffffffffffffffffff16815260200190815260200160002054600161111b9190614ba1565b600b600960008473ffffffffffffffffffffffffffffffffffffffff1673ffffffffffffffffffffffffffffffffffffffff168152602001908152602001600020548154811061116e5761116d614bfb565b5b9060005260206000209060060201600101600082825461118e9190614b4b565b92505081905550600a60003373ffffffffffffffffffffffffffffffffffffffff1673ffffffffffffffffffffffffffffffffffffffff1681526020019081526020016000205460016111e19190614ba1565b600b600960008473ffffffffffffffffffffffffffffffffffffffff1673ffffffffffffffffffffffffffffffffffffffff168152602001908152602001600020548154811061123457611233614bfb565b5b906000526020600020906006020160020160008282546112549190614b4b565b92505081905550600a60003373ffffffffffffffffffffffffffffffffffffffff1673ffffffffffffffffffffffffffffffffffffffff1681526020019081526020016000205460016112a79190614ba1565b600b600960008473ffffffffffffffffffffffffffffffffffffffff1673ffffffffffffffffffffffffffffffffffffffff16815260200190815260200160002054815481106112fa576112f9614bfb565b5b9060005260206000209060060201600301600082825461131a9190614b4b565b9250508190555050565b61133561132f6132c7565b83613388565b611374576040517f08c379a000000000000000000000000000000000000000000000000000000000815260040161136b90614926565b60405180910390fd5b61138084848484613933565b50505050565b60606113918261327c565b600061139b61398f565b905060008151116113bb57604051806020016040528060008152506113e6565b806113c5846139a6565b6040516020016113d6929190614c66565b6040516020818303038152906040525b915050919050565b60006113f933610d77565b11611439576040517f08c379a000000000000000000000000000000000000000000000000000000000815260040161143090614992565b60405180910390fd5b60011515600c858154811061145157611450614bfb565b5b90600052602060002090600a020160010160009054906101000a900460ff1615151461147c57600080fd5b33600c858154811061149157611490614bfb565b5b90600052602060002090600a020160090160006101000a81548173ffffffffffffffffffffffffffffffffffffffff021916908373ffffffffffffffffffffffffffffffffffffffff160217905550604051806060016040528084815260200183815260200182815250600c858154811061150f5761150e614bfb565b5b90600052602060002090600a020160050190600361152e929190613f9c565b506000600c858154811061154557611544614bfb565b5b90600052602060002090600a020160010160006101000a81548160ff0219169083151502179055506000600b60096000600c888154811061158957611588614bfb565b5b90600052602060002090600a020160080160009054906101000a900473ffffffffffffffffffffffffffffffffffffffff1673ffffffffffffffffffffffffffffffffffffffff1673ffffffffffffffffffffffffffffffffffffffff168152602001908152602001600020548154811061160757611606614bfb565b5b90600052602060002090600602016001015490506000600b60096000600c898154811061163757611636614bfb565b5b90600052602060002090600a020160080160009054906101000a900473ffffffffffffffffffffffffffffffffffffffff1673ffffffffffffffffffffffffffffffffffffffff1673ffffffffffffffffffffffffffffffffffffffff16815260200190815260200160002054815481106116b5576116b4614bfb565b5b90600052602060002090600602016002015490506000600b60096000600c8a815481106116e5576116e4614bfb565b5b90600052602060002090600a020160080160009054906101000a900473ffffffffffffffffffffffffffffffffffffffff1673ffffffffffffffffffffffffffffffffffffffff1673ffffffffffffffffffffffffffffffffffffffff168152602001908152602001600020548154811061176357611762614bfb565b5b90600052602060002090600602016003015490506000600b60096000600c8b8154811061179357611792614bfb565b5b90600052602060002090600a020160090160009054906101000a900473ffffffffffffffffffffffffffffffffffffffff1673ffffffffffffffffffffffffffffffffffffffff1673ffffffffffffffffffffffffffffffffffffffff168152602001908152602001600020548154811061181157611810614bfb565b5b90600052602060002090600602016001015490506000600b60096000600c8c8154811061184157611840614bfb565b5b90600052602060002090600a020160090160009054906101000a900473ffffffffffffffffffffffffffffffffffffffff1673ffffffffffffffffffffffffffffffffffffffff1673ffffffffffffffffffffffffffffffffffffffff16815260200190815260200160002054815481106118bf576118be614bfb565b5b90600052602060002090600602016002015490506000600b60096000600c8d815481106118ef576118ee614bfb565b5b90600052602060002090600a020160090160009054906101000a900473ffffffffffffffffffffffffffffffffffffffff1673ffffffffffffffffffffffffffffffffffffffff1673ffffffffffffffffffffffffffffffffffffffff168152602001908152602001600020548154811061196d5761196c614bfb565b5b906000526020600020906006020160030154905060005b6003811015612e6e57600c8b815481106119a1576119a0614bfb565b5b90600052602060002090600a020160050181600381106119c4576119c3614bfb565b5b0154600c8c815481106119da576119d9614bfb565b5b90600052602060002090600a020160020182600381106119fd576119fc614bfb565b5b0154148015611a4457506001600c8c81548110611a1d57611a1c614bfb565b5b90600052602060002090600a02016005018260038110611a4057611a3f614bfb565b5b0154145b15611bf157838710611b20578387611a5c9190614c8a565b600b60096000600c8f81548110611a7657611a75614bfb565b5b90600052602060002090600a020160080160009054906101000a900473ffffffffffffffffffffffffffffffffffffffff1673ffffffffffffffffffffffffffffffffffffffff1673ffffffffffffffffffffffffffffffffffffffff1681526020019081526020016000205481548110611af457611af3614bfb565b5b90600052602060002090600602016004016000828254611b149190614b4b565b92505081905550611bec565b8684611b2c9190614c8a565b600b60096000600c8f81548110611b4657611b45614bfb565b5b90600052602060002090600a020160090160009054906101000a900473ffffffffffffffffffffffffffffffffffffffff1673ffffffffffffffffffffffffffffffffffffffff1673ffffffffffffffffffffffffffffffffffffffff1681526020019081526020016000205481548110611bc457611bc3614bfb565b5b90600052602060002090600602016004016000828254611be49190614b4b565b925050819055505b612e5b565b600c8b81548110611c0557611c04614bfb565b5b90600052602060002090600a02016005018160038110611c2857611c27614bfb565b5b0154600c8c81548110611c3e57611c3d614bfb565b5b90600052602060002090600a02016002018260038110611c6157611c60614bfb565b5b0154148015611ca857506002600c8c81548110611c8157611c80614bfb565b5b90600052602060002090600a02016005018260038110611ca457611ca3614bfb565b5b0154145b15611e5557828610611d84578286611cc09190614c8a565b600b60096000600c8f81548110611cda57611cd9614bfb565b5b90600052602060002090600a020160080160009054906101000a900473ffffffffffffffffffffffffffffffffffffffff1673ffffffffffffffffffffffffffffffffffffffff1673ffffffffffffffffffffffffffffffffffffffff1681526020019081526020016000205481548110611d5857611d57614bfb565b5b90600052602060002090600602016004016000828254611d789190614b4b565b92505081905550611e50565b8583611d909190614c8a565b600b60096000600c8f81548110611daa57611da9614bfb565b5b90600052602060002090600a020160090160009054906101000a900473ffffffffffffffffffffffffffffffffffffffff1673ffffffffffffffffffffffffffffffffffffffff1673ffffffffffffffffffffffffffffffffffffffff1681526020019081526020016000205481548110611e2857611e27614bfb565b5b90600052602060002090600602016004016000828254611e489190614b4b565b925050819055505b612e5a565b600c8b81548110611e6957611e68614bfb565b5b90600052602060002090600a02016005018160038110611e8c57611e8b614bfb565b5b0154600c8c81548110611ea257611ea1614bfb565b5b90600052602060002090600a02016002018260038110611ec557611ec4614bfb565b5b0154148015611f0c57506003600c8c81548110611ee557611ee4614bfb565b5b90600052602060002090600a02016005018260038110611f0857611f07614bfb565b5b0154145b156120b957818510611fe8578185611f249190614c8a565b600b60096000600c8f81548110611f3e57611f3d614bfb565b5b90600052602060002090600a020160080160009054906101000a900473ffffffffffffffffffffffffffffffffffffffff1673ffffffffffffffffffffffffffffffffffffffff1673ffffffffffffffffffffffffffffffffffffffff1681526020019081526020016000205481548110611fbc57611fbb614bfb565b5b90600052602060002090600602016004016000828254611fdc9190614b4b565b925050819055506120b4565b8482611ff49190614c8a565b600b60096000600c8f8154811061200e5761200d614bfb565b5b90600052602060002090600a020160090160009054906101000a900473ffffffffffffffffffffffffffffffffffffffff1673ffffffffffffffffffffffffffffffffffffffff1673ffffffffffffffffffffffffffffffffffffffff168152602001908152602001600020548154811061208c5761208b614bfb565b5b906000526020600020906006020160040160008282546120ac9190614b4b565b925050819055505b612e59565b6001600c8c815481106120cf576120ce614bfb565b5b90600052602060002090600a020160020182600381106120f2576120f1614bfb565b5b015414801561213957506002600c8c8154811061211257612111614bfb565b5b90600052602060002090600a0201600501826003811061213557612134614bfb565b5b0154145b156122fe5782871061222157600f83886121539190614c8a565b61215d9190614b4b565b600b60096000600c8f8154811061217757612176614bfb565b5b90600052602060002090600a020160080160009054906101000a900473ffffffffffffffffffffffffffffffffffffffff1673ffffffffffffffffffffffffffffffffffffffff1673ffffffffffffffffffffffffffffffffffffffff16815260200190815260200160002054815481106121f5576121f4614bfb565b5b906000526020600020906006020160040160008282546122159190614b4b565b925050819055506122f9565b6005878461222f9190614c8a565b6122399190614b4b565b600b60096000600c8f8154811061225357612252614bfb565b5b90600052602060002090600a020160090160009054906101000a900473ffffffffffffffffffffffffffffffffffffffff1673ffffffffffffffffffffffffffffffffffffffff1673ffffffffffffffffffffffffffffffffffffffff16815260200190815260200160002054815481106122d1576122d0614bfb565b5b906000526020600020906006020160040160008282546122f19190614b4b565b925050819055505b612e58565b6001600c8c8154811061231457612313614bfb565b5b90600052602060002090600a0201600201826003811061233757612336614bfb565b5b015414801561237e57506003600c8c8154811061235757612356614bfb565b5b90600052602060002090600a0201600501826003811061237a57612379614bfb565b5b0154145b156125435781871061246657600a82886123989190614c8a565b6123a29190614b4b565b600b60096000600c8f815481106123bc576123bb614bfb565b5b90600052602060002090600a020160080160009054906101000a900473ffffffffffffffffffffffffffffffffffffffff1673ffffffffffffffffffffffffffffffffffffffff1673ffffffffffffffffffffffffffffffffffffffff168152602001908152602001600020548154811061243a57612439614bfb565b5b9060005260206000209060060201600401600082825461245a9190614b4b565b9250508190555061253e565b601987836124749190614c8a565b61247e9190614b4b565b600b60096000600c8f8154811061249857612497614bfb565b5b90600052602060002090600a020160090160009054906101000a900473ffffffffffffffffffffffffffffffffffffffff1673ffffffffffffffffffffffffffffffffffffffff1673ffffffffffffffffffffffffffffffffffffffff168152602001908152602001600020548154811061251657612515614bfb565b5b906000526020600020906006020160040160008282546125369190614b4b565b925050819055505b612e57565b6002600c8c8154811061255957612558614bfb565b5b90600052602060002090600a0201600201826003811061257c5761257b614bfb565b5b01541480156125c357506003600c8c8154811061259c5761259b614bfb565b5b90600052602060002090600a020160050182600381106125bf576125be614bfb565b5b0154145b15612788578186106126ab57601482876125dd9190614c8a565b6125e79190614b4b565b600b60096000600c8f8154811061260157612600614bfb565b5b90600052602060002090600a020160080160009054906101000a900473ffffffffffffffffffffffffffffffffffffffff1673ffffffffffffffffffffffffffffffffffffffff1673ffffffffffffffffffffffffffffffffffffffff168152602001908152602001600020548154811061267f5761267e614bfb565b5b9060005260206000209060060201600401600082825461269f9190614b4b565b92505081905550612783565b600586836126b99190614c8a565b6126c39190614b4b565b600b60096000600c8f815481106126dd576126dc614bfb565b5b90600052602060002090600a020160090160009054906101000a900473ffffffffffffffffffffffffffffffffffffffff1673ffffffffffffffffffffffffffffffffffffffff1673ffffffffffffffffffffffffffffffffffffffff168152602001908152602001600020548154811061275b5761275a614bfb565b5b9060005260206000209060060201600401600082825461277b9190614b4b565b925050819055505b612e56565b6002600c8c8154811061279e5761279d614bfb565b5b90600052602060002090600a020160020182600381106127c1576127c0614bfb565b5b015414801561280857506001600c8c815481106127e1576127e0614bfb565b5b90600052602060002090600a0201600501826003811061280457612803614bfb565b5b0154145b156129cd578386106128f057600f84876128229190614c8a565b61282c9190614b4b565b600b60096000600c8f8154811061284657612845614bfb565b5b90600052602060002090600a020160080160009054906101000a900473ffffffffffffffffffffffffffffffffffffffff1673ffffffffffffffffffffffffffffffffffffffff1673ffffffffffffffffffffffffffffffffffffffff16815260200190815260200160002054815481106128c4576128c3614bfb565b5b906000526020600020906006020160040160008282546128e49190614b4b565b925050819055506129c8565b600586856128fe9190614c8a565b6129089190614b4b565b600b60096000600c8f8154811061292257612921614bfb565b5b90600052602060002090600a020160090160009054906101000a900473ffffffffffffffffffffffffffffffffffffffff1673ffffffffffffffffffffffffffffffffffffffff1673ffffffffffffffffffffffffffffffffffffffff16815260200190815260200160002054815481106129a05761299f614bfb565b5b906000526020600020906006020160040160008282546129c09190614b4b565b925050819055505b612e55565b6003600c8c815481106129e3576129e2614bfb565b5b90600052602060002090600a02016002018260038110612a0657612a05614bfb565b5b0154148015612a4d57506001600c8c81548110612a2657612a25614bfb565b5b90600052602060002090600a02016005018260038110612a4957612a48614bfb565b5b0154145b15612c1257838510612b355760198486612a679190614c8a565b612a719190614b4b565b600b60096000600c8f81548110612a8b57612a8a614bfb565b5b90600052602060002090600a020160080160009054906101000a900473ffffffffffffffffffffffffffffffffffffffff1673ffffffffffffffffffffffffffffffffffffffff1673ffffffffffffffffffffffffffffffffffffffff1681526020019081526020016000205481548110612b0957612b08614bfb565b5b90600052602060002090600602016004016000828254612b299190614b4b565b92505081905550612c0d565b600a8585612b439190614c8a565b612b4d9190614b4b565b600b60096000600c8f81548110612b6757612b66614bfb565b5b90600052602060002090600a020160090160009054906101000a900473ffffffffffffffffffffffffffffffffffffffff1673ffffffffffffffffffffffffffffffffffffffff1673ffffffffffffffffffffffffffffffffffffffff1681526020019081526020016000205481548110612be557612be4614bfb565b5b90600052602060002090600602016004016000828254612c059190614b4b565b925050819055505b612e54565b6003600c8c81548110612c2857612c27614bfb565b5b90600052602060002090600a02016002018260038110612c4b57612c4a614bfb565b5b0154148015612c9257506002600c8c81548110612c6b57612c6a614bfb565b5b90600052602060002090600a02016005018260038110612c8e57612c8d614bfb565b5b0154145b15612e5357828510612d7a5760058386612cac9190614c8a565b612cb69190614b4b565b600b60096000600c8f81548110612cd057612ccf614bfb565b5b90600052602060002090600a020160080160009054906101000a900473ffffffffffffffffffffffffffffffffffffffff1673ffffffffffffffffffffffffffffffffffffffff1673ffffffffffffffffffffffffffffffffffffffff1681526020019081526020016000205481548110612d4e57612d4d614bfb565b5b90600052602060002090600602016004016000828254612d6e9190614b4b565b92505081905550612e52565b60148584612d889190614c8a565b612d929190614b4b565b600b60096000600c8f81548110612dac57612dab614bfb565b5b90600052602060002090600a020160090160009054906101000a900473ffffffffffffffffffffffffffffffffffffffff1673ffffffffffffffffffffffffffffffffffffffff1673ffffffffffffffffffffffffffffffffffffffff1681526020019081526020016000205481548110612e2a57612e29614bfb565b5b90600052602060002090600602016004016000828254612e4a9190614b4b565b925050819055505b5b5b5b5b5b5b5b5b5b8080612e6690614cbe565b915050611984565b5050505050505050505050565b600c8181548110612e8b57600080fd5b90600052602060002090600a02016000915090508060000154908060010160009054906101000a900460ff16908060080160009054906101000a900473ffffffffffffffffffffffffffffffffffffffff16908060090160009054906101000a900473ffffffffffffffffffffffffffffffffffffffff16905084565b6000600560008473ffffffffffffffffffffffffffffffffffffffff1673ffffffffffffffffffffffffffffffffffffffff16815260200190815260200160002060008373ffffffffffffffffffffffffffffffffffffffff1673ffffffffffffffffffffffffffffffffffffffff16815260200190815260200160002060009054906101000a900460ff16905092915050565b612fa4613683565b600073ffffffffffffffffffffffffffffffffffffffff168173ffffffffffffffffffffffffffffffffffffffff1603613013576040517f08c379a000000000000000000000000000000000000000000000000000000000815260040161300a90614d78565b60405180910390fd5b61301c81613701565b50565b6000801515600860003373ffffffffffffffffffffffffffffffffffffffff1673ffffffffffffffffffffffffffffffffffffffff16815260200190815260200160002060009054906101000a900460ff161515146130b3576040517f08c379a00000000000000000000000000000000000000000000000000000000081526004016130aa90614de4565b60405180910390fd5b6001600860003373ffffffffffffffffffffffffffffffffffffffff1673ffffffffffffffffffffffffffffffffffffffff16815260200190815260200160002060006101000a81548160ff02191690831515021790555060006131176007613b06565b9050600b6040518060c0016040528083815260200160648152602001606481526020016064815260200160008152602001428152509080600181540180825580915050600190039060005260206000209060060201600090919091909150600082015181600001556020820151816001015560408201518160020155606082015181600301556080820151816004015560a0820151816005015550506131bd3382613b14565b80600960003373ffffffffffffffffffffffffffffffffffffffff1673ffffffffffffffffffffffffffffffffffffffff1681526020019081526020016000208190555061320b6007613b32565b8091505090565b60007f01ffc9a7000000000000000000000000000000000000000000000000000000007bffffffffffffffffffffffffffffffffffffffffffffffffffffffff1916827bffffffffffffffffffffffffffffffffffffffffffffffffffffffff1916149050919050565b61328581613b48565b6132c4576040517f08c379a00000000000000000000000000000000000000000000000000000000081526004016132bb906149fe565b60405180910390fd5b50565b600033905090565b816004600083815260200190815260200160002060006101000a81548173ffffffffffffffffffffffffffffffffffffffff021916908373ffffffffffffffffffffffffffffffffffffffff160217905550808273ffffffffffffffffffffffffffffffffffffffff1661334283610cae565b73ffffffffffffffffffffffffffffffffffffffff167f8c5be1e5ebec7d5bd14f71427d1e84f3dd0314c0f7b2291e5b200ac8c7c3b92560405160405180910390a45050565b60008061339483610cae565b90508073ffffffffffffffffffffffffffffffffffffffff168473ffffffffffffffffffffffffffffffffffffffff1614806133d657506133d58185612f08565b5b8061341457508373ffffffffffffffffffffffffffffffffffffffff166133fc846107f3565b73ffffffffffffffffffffffffffffffffffffffff16145b91505092915050565b8273ffffffffffffffffffffffffffffffffffffffff1661343d82610cae565b73ffffffffffffffffffffffffffffffffffffffff1614613493576040517f08c379a000000000000000000000000000000000000000000000000000000000815260040161348a90614e76565b60405180910390fd5b600073ffffffffffffffffffffffffffffffffffffffff168273ffffffffffffffffffffffffffffffffffffffff1603613502576040517f08c379a00000000000000000000000000000000000000000000000000000000081526004016134f990614f08565b60405180910390fd5b61350d838383613bb4565b6135186000826132cf565b6001600360008573ffffffffffffffffffffffffffffffffffffffff1673ffffffffffffffffffffffffffffffffffffffff16815260200190815260200160002060008282546135689190614c8a565b925050819055506001600360008473ffffffffffffffffffffffffffffffffffffffff1673ffffffffffffffffffffffffffffffffffffffff16815260200190815260200160002060008282546135bf9190614b4b565b92505081905550816002600083815260200190815260200160002060006101000a81548173ffffffffffffffffffffffffffffffffffffffff021916908373ffffffffffffffffffffffffffffffffffffffff160217905550808273ffffffffffffffffffffffffffffffffffffffff168473ffffffffffffffffffffffffffffffffffffffff167fddf252ad1be2c89b69c2b068fc378daa952ba7f163c4a11628f55a4df523b3ef60405160405180910390a461367e838383613bb9565b505050565b61368b6132c7565b73ffffffffffffffffffffffffffffffffffffffff166136a9610e42565b73ffffffffffffffffffffffffffffffffffffffff16146136ff576040517f08c379a00000000000000000000000000000000000000000000000000000000081526004016136f690614f74565b60405180910390fd5b565b6000600660009054906101000a900473ffffffffffffffffffffffffffffffffffffffff16905081600660006101000a81548173ffffffffffffffffffffffffffffffffffffffff021916908373ffffffffffffffffffffffffffffffffffffffff1602179055508173ffffffffffffffffffffffffffffffffffffffff168173ffffffffffffffffffffffffffffffffffffffff167f8be0079c531659141344cd1fd0a4f28419497f9722a3daafe3b4186f6b6457e060405160405180910390a35050565b8173ffffffffffffffffffffffffffffffffffffffff168373ffffffffffffffffffffffffffffffffffffffff1603613835576040517f08c379a000000000000000000000000000000000000000000000000000000000815260040161382c90614fe0565b60405180910390fd5b80600560008573ffffffffffffffffffffffffffffffffffffffff1673ffffffffffffffffffffffffffffffffffffffff16815260200190815260200160002060008473ffffffffffffffffffffffffffffffffffffffff1673ffffffffffffffffffffffffffffffffffffffff16815260200190815260200160002060006101000a81548160ff0219169083151502179055508173ffffffffffffffffffffffffffffffffffffffff168373ffffffffffffffffffffffffffffffffffffffff167f17307eab39ab6107e8899845ad3d59bd9653f200f220920489ca2b5937696c318360405161392691906140ad565b60405180910390a3505050565b61393e84848461341d565b61394a84848484613bbe565b613989576040517f08c379a000000000000000000000000000000000000000000000000000000000815260040161398090615072565b60405180910390fd5b50505050565b606060405180602001604052806000815250905090565b6060600082036139ed576040518060400160405280600181526020017f30000000000000000000000000000000000000000000000000000000000000008152509050613b01565b600082905060005b60008214613a1f578080613a0890614cbe565b915050600a82613a1891906150c1565b91506139f5565b60008167ffffffffffffffff811115613a3b57613a3a614496565b5b6040519080825280601f01601f191660200182016040528015613a6d5781602001600182028036833780820191505090505b5090505b60008514613afa57600182613a869190614c8a565b9150600a85613a9591906150f2565b6030613aa19190614b4b565b60f81b818381518110613ab757613ab6614bfb565b5b60200101907effffffffffffffffffffffffffffffffffffffffffffffffffffffffffffff1916908160001a905350600a85613af391906150c1565b9450613a71565b8093505050505b919050565b600081600001549050919050565b613b2e828260405180602001604052806000815250613d45565b5050565b6001816000016000828254019250508190555050565b60008073ffffffffffffffffffffffffffffffffffffffff166002600084815260200190815260200160002060009054906101000a900473ffffffffffffffffffffffffffffffffffffffff1673ffffffffffffffffffffffffffffffffffffffff1614159050919050565b505050565b505050565b6000613bdf8473ffffffffffffffffffffffffffffffffffffffff16613da0565b15613d38578373ffffffffffffffffffffffffffffffffffffffff1663150b7a02613c086132c7565b8786866040518563ffffffff1660e01b8152600401613c2a9493929190615178565b6020604051808303816000875af1925050508015613c6657506040513d601f19601f82011682018060405250810190613c6391906151d9565b60015b613ce8573d8060008114613c96576040519150601f19603f3d011682016040523d82523d6000602084013e613c9b565b606091505b506000815103613ce0576040517f08c379a0000000000000000000000000000000000000000000000000000000008152600401613cd790615072565b60405180910390fd5b805181602001fd5b63150b7a0260e01b7bffffffffffffffffffffffffffffffffffffffffffffffffffffffff1916817bffffffffffffffffffffffffffffffffffffffffffffffffffffffff191614915050613d3d565b600190505b949350505050565b613d4f8383613dc3565b613d5c6000848484613bbe565b613d9b576040517f08c379a0000000000000000000000000000000000000000000000000000000008152600401613d9290615072565b60405180910390fd5b505050565b6000808273ffffffffffffffffffffffffffffffffffffffff163b119050919050565b600073ffffffffffffffffffffffffffffffffffffffff168273ffffffffffffffffffffffffffffffffffffffff1603613e32576040517f08c379a0000000000000000000000000000000000000000000000000000000008152600401613e2990615252565b60405180910390fd5b613e3b81613b48565b15613e7b576040517f08c379a0000000000000000000000000000000000000000000000000000000008152600401613e72906152be565b60405180910390fd5b613e8760008383613bb4565b6001600360008473ffffffffffffffffffffffffffffffffffffffff1673ffffffffffffffffffffffffffffffffffffffff1681526020019081526020016000206000828254613ed79190614b4b565b92505081905550816002600083815260200190815260200160002060006101000a81548173ffffffffffffffffffffffffffffffffffffffff021916908373ffffffffffffffffffffffffffffffffffffffff160217905550808273ffffffffffffffffffffffffffffffffffffffff16600073ffffffffffffffffffffffffffffffffffffffff167fddf252ad1be2c89b69c2b068fc378daa952ba7f163c4a11628f55a4df523b3ef60405160405180910390a4613f9860008383613bb9565b5050565b8260038101928215613fcb579160200282015b82811115613fca578251825591602001919060010190613faf565b5b509050613fd89190613fdc565b5090565b5b80821115613ff5576000816000905550600101613fdd565b5090565b6000604051905090565b600080fd5b600080fd5b60007fffffffff0000000000000000000000000000000000000000000000000000000082169050919050565b6140428161400d565b811461404d57600080fd5b50565b60008135905061405f81614039565b92915050565b60006020828403121561407b5761407a614003565b5b600061408984828501614050565b91505092915050565b60008115159050919050565b6140a781614092565b82525050565b60006020820190506140c2600083018461409e565b92915050565b600081519050919050565b600082825260208201905092915050565b60005b838110156141025780820151818401526020810190506140e7565b83811115614111576000848401525b50505050565b6000601f19601f8301169050919050565b6000614133826140c8565b61413d81856140d3565b935061414d8185602086016140e4565b61415681614117565b840191505092915050565b6000602082019050818103600083015261417b8184614128565b905092915050565b6000819050919050565b61419681614183565b81146141a157600080fd5b50565b6000813590506141b38161418d565b92915050565b6000602082840312156141cf576141ce614003565b5b60006141dd848285016141a4565b91505092915050565b600073ffffffffffffffffffffffffffffffffffffffff82169050919050565b6000614211826141e6565b9050919050565b61422181614206565b82525050565b600060208201905061423c6000830184614218565b92915050565b61424b81614206565b811461425657600080fd5b50565b60008135905061426881614242565b92915050565b6000806040838503121561428557614284614003565b5b600061429385828601614259565b92505060206142a4858286016141a4565b9150509250929050565b6000602082840312156142c4576142c3614003565b5b60006142d284828501614259565b91505092915050565b6000806000606084860312156142f4576142f3614003565b5b600061430286828701614259565b935050602061431386828701614259565b9250506040614324868287016141a4565b9150509250925092565b6000806000806080858703121561434857614347614003565b5b600061435687828801614259565b9450506020614367878288016141a4565b9350506040614378878288016141a4565b9250506060614389878288016141a4565b91505092959194509250565b61439e81614183565b82525050565b60006020820190506143b96000830184614395565b92915050565b600060c0820190506143d46000830189614395565b6143e16020830188614395565b6143ee6040830187614395565b6143fb6060830186614395565b6144086080830185614395565b61441560a0830184614395565b979650505050505050565b61442981614092565b811461443457600080fd5b50565b60008135905061444681614420565b92915050565b6000806040838503121561446357614462614003565b5b600061447185828601614259565b925050602061448285828601614437565b9150509250929050565b600080fd5b600080fd5b7f4e487b7100000000000000000000000000000000000000000000000000000000600052604160045260246000fd5b6144ce82614117565b810181811067ffffffffffffffff821117156144ed576144ec614496565b5b80604052505050565b6000614500613ff9565b905061450c82826144c5565b919050565b600067ffffffffffffffff82111561452c5761452b614496565b5b61453582614117565b9050602081019050919050565b82818337600083830152505050565b600061456461455f84614511565b6144f6565b9050828152602081018484840111156145805761457f614491565b5b61458b848285614542565b509392505050565b600082601f8301126145a8576145a761448c565b5b81356145b8848260208601614551565b91505092915050565b600080600080608085870312156145db576145da614003565b5b60006145e987828801614259565b94505060206145fa87828801614259565b935050604061460b878288016141a4565b925050606085013567ffffffffffffffff81111561462c5761462b614008565b5b61463887828801614593565b91505092959194509250565b6000806000806080858703121561465e5761465d614003565b5b600061466c878288016141a4565b945050602061467d878288016141a4565b935050604061468e878288016141a4565b925050606061469f878288016141a4565b91505092959194509250565b60006080820190506146c06000830187614395565b6146cd602083018661409e565b6146da6040830185614218565b6146e76060830184614218565b95945050505050565b6000806040838503121561470757614706614003565b5b600061471585828601614259565b925050602061472685828601614259565b9150509250929050565b7f4e487b7100000000000000000000000000000000000000000000000000000000600052602260045260246000fd5b6000600282049050600182168061477757607f821691505b60208210810361478a57614789614730565b5b50919050565b7f4552433732313a20617070726f76616c20746f2063757272656e74206f776e6560008201527f7200000000000000000000000000000000000000000000000000000000000000602082015250565b60006147ec6021836140d3565b91506147f782614790565b604082019050919050565b6000602082019050818103600083015261481b816147df565b9050919050565b7f4552433732313a20617070726f76652063616c6c6572206973206e6f7420746f60008201527f6b656e206f776e6572206e6f7220617070726f76656420666f7220616c6c0000602082015250565b600061487e603e836140d3565b915061488982614822565b604082019050919050565b600060208201905081810360008301526148ad81614871565b9050919050565b7f4552433732313a2063616c6c6572206973206e6f7420746f6b656e206f776e6560008201527f72206e6f7220617070726f766564000000000000000000000000000000000000602082015250565b6000614910602e836140d3565b915061491b826148b4565b604082019050919050565b6000602082019050818103600083015261493f81614903565b9050919050565b7f4e4f000000000000000000000000000000000000000000000000000000000000600082015250565b600061497c6002836140d3565b915061498782614946565b602082019050919050565b600060208201905081810360008301526149ab8161496f565b9050919050565b7f4552433732313a20696e76616c696420746f6b656e2049440000000000000000600082015250565b60006149e86018836140d3565b91506149f3826149b2565b602082019050919050565b60006020820190508181036000830152614a17816149db565b9050919050565b7f4552433732313a2061646472657373207a65726f206973206e6f74206120766160008201527f6c6964206f776e65720000000000000000000000000000000000000000000000602082015250565b6000614a7a6029836140d3565b9150614a8582614a1e565b604082019050919050565b60006020820190508181036000830152614aa981614a6d565b9050919050565b7f5061796d656e7420726571756972656400000000000000000000000000000000600082015250565b6000614ae66010836140d3565b9150614af182614ab0565b602082019050919050565b60006020820190508181036000830152614b1581614ad9565b9050919050565b7f4e487b7100000000000000000000000000000000000000000000000000000000600052601160045260246000fd5b6000614b5682614183565b9150614b6183614183565b9250827fffffffffffffffffffffffffffffffffffffffffffffffffffffffffffffffff03821115614b9657614b95614b1c565b5b828201905092915050565b6000614bac82614183565b9150614bb783614183565b9250817fffffffffffffffffffffffffffffffffffffffffffffffffffffffffffffffff0483118215151615614bf057614bef614b1c565b5b828202905092915050565b7f4e487b7100000000000000000000000000000000000000000000000000000000600052603260045260246000fd5b600081905092915050565b6000614c40826140c8565b614c4a8185614c2a565b9350614c5a8185602086016140e4565b80840191505092915050565b6000614c728285614c35565b9150614c7e8284614c35565b91508190509392505050565b6000614c9582614183565b9150614ca083614183565b925082821015614cb357614cb2614b1c565b5b828203905092915050565b6000614cc982614183565b91507fffffffffffffffffffffffffffffffffffffffffffffffffffffffffffffffff8203614cfb57614cfa614b1c565b5b600182019050919050565b7f4f776e61626c653a206e6577206f776e657220697320746865207a65726f206160008201527f6464726573730000000000000000000000000000000000000000000000000000602082015250565b6000614d626026836140d3565b9150614d6d82614d06565b604082019050919050565b60006020820190508181036000830152614d9181614d55565b9050919050565b7f416c7265616479204d696e746564000000000000000000000000000000000000600082015250565b6000614dce600e836140d3565b9150614dd982614d98565b602082019050919050565b60006020820190508181036000830152614dfd81614dc1565b9050919050565b7f4552433732313a207472616e736665722066726f6d20696e636f72726563742060008201527f6f776e6572000000000000000000000000000000000000000000000000000000602082015250565b6000614e606025836140d3565b9150614e6b82614e04565b604082019050919050565b60006020820190508181036000830152614e8f81614e53565b9050919050565b7f4552433732313a207472616e7366657220746f20746865207a65726f2061646460008201527f7265737300000000000000000000000000000000000000000000000000000000602082015250565b6000614ef26024836140d3565b9150614efd82614e96565b604082019050919050565b60006020820190508181036000830152614f2181614ee5565b9050919050565b7f4f776e61626c653a2063616c6c6572206973206e6f7420746865206f776e6572600082015250565b6000614f5e6020836140d3565b9150614f6982614f28565b602082019050919050565b60006020820190508181036000830152614f8d81614f51565b9050919050565b7f4552433732313a20617070726f766520746f2063616c6c657200000000000000600082015250565b6000614fca6019836140d3565b9150614fd582614f94565b602082019050919050565b60006020820190508181036000830152614ff981614fbd565b9050919050565b7f4552433732313a207472616e7366657220746f206e6f6e20455243373231526560008201527f63656976657220696d706c656d656e7465720000000000000000000000000000602082015250565b600061505c6032836140d3565b915061506782615000565b604082019050919050565b6000602082019050818103600083015261508b8161504f565b9050919050565b7f4e487b7100000000000000000000000000000000000000000000000000000000600052601260045260246000fd5b60006150cc82614183565b91506150d783614183565b9250826150e7576150e6615092565b5b828204905092915050565b60006150fd82614183565b915061510883614183565b92508261511857615117615092565b5b828206905092915050565b600081519050919050565b600082825260208201905092915050565b600061514a82615123565b615154818561512e565b93506151648185602086016140e4565b61516d81614117565b840191505092915050565b600060808201905061518d6000830187614218565b61519a6020830186614218565b6151a76040830185614395565b81810360608301526151b9818461513f565b905095945050505050565b6000815190506151d381614039565b92915050565b6000602082840312156151ef576151ee614003565b5b60006151fd848285016151c4565b91505092915050565b7f4552433732313a206d696e7420746f20746865207a65726f2061646472657373600082015250565b600061523c6020836140d3565b915061524782615206565b602082019050919050565b6000602082019050818103600083015261526b8161522f565b9050919050565b7f4552433732313a20746f6b656e20616c7265616479206d696e74656400000000600082015250565b60006152a8601c836140d3565b91506152b382615272565b602082019050919050565b600060208201905081810360008301526152d78161529b565b905091905056fea26469706673582212209aea9621ec83a2d6d9ff13d85aa79443ae545c62c5fa9ac26974790954764d0c64736f6c634300080e0033",
  "immutableReferences": {},
  "source": "// SPDX-License-Identifier: MIT\npragma solidity ^0.8.7;\n\nimport \"../node_modules/@openzeppelin/contracts/token/ERC721/ERC721.sol\";\nimport \"../node_modules/@openzeppelin/contracts/access/Ownable.sol\";\nimport \"../node_modules/@openzeppelin/contracts/utils/Counters.sol\";\n\ncontract OCFC is ERC721, Ownable {\n    using Counters for Counters.Counter;\n    Counters.Counter private _tokenIds;\n\n    mapping(address => bool) public alreadyMinted;\n    mapping(address => uint) public addressToTokenId;\n    mapping(address => uint) public trainCounter;\n\n    struct Member {\n        uint id;\n        uint punchPower;\n        uint kickPower;\n        uint headOffPower;\n        uint score;\n        uint bday;\n    }\n    Member[] public member;\n\n    struct Fight {\n        uint id;\n        bool isActive;\n        uint[3] fighter1Moves;\n        uint[3] fighter2Moves;\n        address fighter1;        \n        address fighter2;\n    }\n    Fight[] public fight;\n\n    constructor() ERC721(\"OnChain Fight Club\", \"Member\") {}\n\n    function mintMember() external returns (uint){\n        require(alreadyMinted[msg.sender] == false, \"Already Minted\");\n        alreadyMinted[msg.sender] = true;\n        uint256 newId = _tokenIds.current();\n        member.push(Member(newId, 100, 100, 100, 0, block.timestamp));\n        _safeMint(msg.sender, newId);\n        addressToTokenId[msg.sender] = newId;\n        _tokenIds.increment();\n        return newId;\n    }\n\n    function createFight(address _fighter1, uint move1, uint move2, uint move3) external {\n        require(ownerOf(addressToTokenId[_fighter1]) == msg.sender, \"NO\");\n        fight.push(Fight(fight.length, true, [move1, move2, move3], [move1, move2, move3], _fighter1, 0x0000000000000000000000000000000000000000));\n    }\n\n    function joinAndFight(uint fightId, uint move1, uint move2, uint move3) external {\n        require(balanceOf(msg.sender)  > 0, \"NO\");\n        require(fight[fightId].isActive == true);\n        fight[fightId].fighter2 = msg.sender;\n        fight[fightId].fighter2Moves = [move1, move2, move3];\n        fight[fightId].isActive = false;\n\n        uint f1PP = member[addressToTokenId[fight[fightId].fighter1]].punchPower;\n        uint f1KP = member[addressToTokenId[fight[fightId].fighter1]].kickPower;\n        uint f1HP = member[addressToTokenId[fight[fightId].fighter1]].headOffPower;\n\n        uint f2PP = member[addressToTokenId[fight[fightId].fighter2]].punchPower;\n        uint f2KP = member[addressToTokenId[fight[fightId].fighter2]].kickPower;\n        uint f2HP = member[addressToTokenId[fight[fightId].fighter2]].headOffPower;\n\n        for (uint i=0; i < 3; i++){\n        if(fight[fightId].fighter1Moves[i] == fight[fightId].fighter2Moves[i] && fight[fightId].fighter2Moves[i] == 1) {\n            if(f1PP >= f2PP) {member[addressToTokenId[fight[fightId].fighter1]].score += (f1PP - f2PP);} \n                else {member[addressToTokenId[fight[fightId].fighter2]].score += (f2PP - f1PP);}\n        } \n        else if(fight[fightId].fighter1Moves[i] == fight[fightId].fighter2Moves[i] && fight[fightId].fighter2Moves[i] == 2) {\n            if(f1KP >= f2KP) {member[addressToTokenId[fight[fightId].fighter1]].score += (f1KP - f2KP);} \n                else {member[addressToTokenId[fight[fightId].fighter2]].score += (f2KP - f1KP);}\n        }\n        else if(fight[fightId].fighter1Moves[i] == fight[fightId].fighter2Moves[i] && fight[fightId].fighter2Moves[i] == 3) {\n            if(f1HP >= f2HP) {member[addressToTokenId[fight[fightId].fighter1]].score += (f1HP - f2HP);} \n                else {member[addressToTokenId[fight[fightId].fighter2]].score += (f2HP - f1HP);}\n        }\n        else if(fight[fightId].fighter1Moves[i] == 1 && fight[fightId].fighter2Moves[i] == 2) {\n            if(f1PP >= f2KP) {member[addressToTokenId[fight[fightId].fighter1]].score += (f1PP - f2KP + 15);} \n                else {member[addressToTokenId[fight[fightId].fighter2]].score += (f2KP - f1PP + 5);}\n        }\n        else if(fight[fightId].fighter1Moves[i] == 1 && fight[fightId].fighter2Moves[i] == 3) {\n            if(f1PP >= f2HP) {member[addressToTokenId[fight[fightId].fighter1]].score += (f1PP - f2HP + 10);} \n                else {member[addressToTokenId[fight[fightId].fighter2]].score += (f2HP - f1PP + 25);}\n        }\n        else if(fight[fightId].fighter1Moves[i] == 2 && fight[fightId].fighter2Moves[i] == 3) {\n            if(f1KP >= f2HP) {member[addressToTokenId[fight[fightId].fighter1]].score += (f1KP - f2HP + 20);} \n                else {member[addressToTokenId[fight[fightId].fighter2]].score += (f2HP - f1KP + 5);}\n        }\n        else if(fight[fightId].fighter1Moves[i] == 2 && fight[fightId].fighter2Moves[i] == 1) {\n            if(f1KP >= f2PP) {member[addressToTokenId[fight[fightId].fighter1]].score += (f1KP - f2PP + 15);} \n                else {member[addressToTokenId[fight[fightId].fighter2]].score += (f2PP - f1KP + 5);}\n        }\n        else if(fight[fightId].fighter1Moves[i] == 3 && fight[fightId].fighter2Moves[i] == 1) {\n            if(f1HP >= f2PP) {member[addressToTokenId[fight[fightId].fighter1]].score += (f1HP - f2PP + 25);} \n                else {member[addressToTokenId[fight[fightId].fighter2]].score += (f2PP - f1HP + 10);}\n        }\n        else if(fight[fightId].fighter1Moves[i] == 3 && fight[fightId].fighter2Moves[i] == 2) {\n            if(f1HP >= f2KP) {member[addressToTokenId[fight[fightId].fighter1]].score += (f1HP - f2KP + 5);} \n                else {member[addressToTokenId[fight[fightId].fighter2]].score += (f2KP - f1HP + 20);}\n        }}\n    }\n\n    function trainFighter(address _fighterOwner) payable external {\n        require(msg.value >= 1 ether, \"Payment required\");\n        require(ownerOf(addressToTokenId[_fighterOwner]) == msg.sender, \"NO\");\n        trainCounter[msg.sender] += 1;\n        member[addressToTokenId[_fighterOwner]].punchPower += 1 * trainCounter[msg.sender];\n        member[addressToTokenId[_fighterOwner]].kickPower += 1 * trainCounter[msg.sender];\n        member[addressToTokenId[_fighterOwner]].headOffPower += 1 * trainCounter[msg.sender];\n    }\n\n    function withdraw() onlyOwner public returns (bool) {\n        payable(msg.sender).transfer(address(this).balance);\n        return true;\n    }\n\n}",
  "sourcePath": "/Users/emrahsayin/Desktop/ocfc/truffle/contracts/ocfc.sol",
  "compiler": {
    "name": "solc",
    "version": "0.8.14+commit.80d49f37.Emscripten.clang"
  },
  "schemaVersion": "3.4.5",
  "updatedAt": "2022-10-21T12:56:36.747Z",
  "networkType": "ethereum",
  "devdoc": {
    "kind": "dev",
    "methods": {
      "approve(address,uint256)": {
        "details": "See {IERC721-approve}."
      },
      "balanceOf(address)": {
        "details": "See {IERC721-balanceOf}."
      },
      "getApproved(uint256)": {
        "details": "See {IERC721-getApproved}."
      },
      "isApprovedForAll(address,address)": {
        "details": "See {IERC721-isApprovedForAll}."
      },
      "name()": {
        "details": "See {IERC721Metadata-name}."
      },
      "owner()": {
        "details": "Returns the address of the current owner."
      },
      "ownerOf(uint256)": {
        "details": "See {IERC721-ownerOf}."
      },
      "renounceOwnership()": {
        "details": "Leaves the contract without owner. It will not be possible to call `onlyOwner` functions anymore. Can only be called by the current owner. NOTE: Renouncing ownership will leave the contract without an owner, thereby removing any functionality that is only available to the owner."
      },
      "safeTransferFrom(address,address,uint256)": {
        "details": "See {IERC721-safeTransferFrom}."
      },
      "safeTransferFrom(address,address,uint256,bytes)": {
        "details": "See {IERC721-safeTransferFrom}."
      },
      "setApprovalForAll(address,bool)": {
        "details": "See {IERC721-setApprovalForAll}."
      },
      "supportsInterface(bytes4)": {
        "details": "See {IERC165-supportsInterface}."
      },
      "symbol()": {
        "details": "See {IERC721Metadata-symbol}."
      },
      "tokenURI(uint256)": {
        "details": "See {IERC721Metadata-tokenURI}."
      },
      "transferFrom(address,address,uint256)": {
        "details": "See {IERC721-transferFrom}."
      },
      "transferOwnership(address)": {
        "details": "Transfers ownership of the contract to a new account (`newOwner`). Can only be called by the current owner."
      }
    },
    "version": 1
  },
  "userdoc": {
    "kind": "user",
    "methods": {},
    "version": 1
  }
}